{
  "contractName": "Hedgehog",
  "abi": [
    {
      "anonymous": false,
      "inputs": [
        {
          "indexed": true,
          "internalType": "address",
          "name": "owner",
          "type": "address"
        },
        {
          "indexed": true,
          "internalType": "address",
          "name": "spender",
          "type": "address"
        },
        {
          "indexed": false,
          "internalType": "uint256",
          "name": "value",
          "type": "uint256"
        }
      ],
      "name": "Approval",
      "type": "event"
    },
    {
      "anonymous": false,
      "inputs": [
        {
          "indexed": true,
          "internalType": "address",
          "name": "from",
          "type": "address"
        },
        {
          "indexed": false,
          "internalType": "uint256",
          "name": "asset_value",
          "type": "uint256"
        },
        {
          "indexed": false,
          "internalType": "uint256",
          "name": "token_value",
          "type": "uint256"
        }
      ],
      "name": "Deposit",
      "type": "event"
    },
    {
      "anonymous": false,
      "inputs": [
        {
          "indexed": false,
          "internalType": "uint256",
          "name": "timestamp",
          "type": "uint256"
        },
        {
          "indexed": false,
          "internalType": "uint256",
          "name": "new_price",
          "type": "uint256"
        },
        {
          "indexed": false,
          "internalType": "uint256",
          "name": "old_price",
          "type": "uint256"
        }
      ],
      "name": "Oracle",
      "type": "event"
    },
    {
      "anonymous": false,
      "inputs": [
        {
          "indexed": true,
          "internalType": "address",
          "name": "from",
          "type": "address"
        },
        {
          "indexed": true,
          "internalType": "address",
          "name": "to",
          "type": "address"
        },
        {
          "indexed": false,
          "internalType": "uint256",
          "name": "value",
          "type": "uint256"
        }
      ],
      "name": "Transfer",
      "type": "event"
    },
    {
      "anonymous": false,
      "inputs": [
        {
          "indexed": true,
          "internalType": "address",
          "name": "from",
          "type": "address"
        },
        {
          "indexed": false,
          "internalType": "uint256",
          "name": "asset_value",
          "type": "uint256"
        },
        {
          "indexed": false,
          "internalType": "uint256",
          "name": "token_value",
          "type": "uint256"
        }
      ],
      "name": "Withdraw",
      "type": "event"
    },
    {
      "inputs": [
        {
          "internalType": "address",
          "name": "",
          "type": "address"
        },
        {
          "internalType": "address",
          "name": "",
          "type": "address"
        }
      ],
      "name": "allowance",
      "outputs": [
        {
          "internalType": "uint256",
          "name": "",
          "type": "uint256"
        }
      ],
      "stateMutability": "view",
      "type": "function"
    },
    {
      "inputs": [
        {
          "internalType": "address",
          "name": "spender",
          "type": "address"
        },
        {
          "internalType": "uint256",
          "name": "value",
          "type": "uint256"
        }
      ],
      "name": "approve",
      "outputs": [
        {
          "internalType": "bool",
          "name": "",
          "type": "bool"
        }
      ],
      "stateMutability": "nonpayable",
      "type": "function"
    },
    {
      "inputs": [],
      "name": "asset",
      "outputs": [
        {
          "internalType": "address",
          "name": "",
          "type": "address"
        }
      ],
      "stateMutability": "view",
      "type": "function"
    },
    {
      "inputs": [
        {
          "internalType": "address",
          "name": "",
          "type": "address"
        }
      ],
      "name": "balanceOf",
      "outputs": [
        {
          "internalType": "uint256",
          "name": "",
          "type": "uint256"
        }
      ],
      "stateMutability": "view",
      "type": "function"
    },
    {
      "inputs": [],
      "name": "decimals",
      "outputs": [
        {
          "internalType": "uint8",
          "name": "",
          "type": "uint8"
        }
      ],
      "stateMutability": "view",
      "type": "function"
    },
    {
      "inputs": [],
      "name": "initialized",
      "outputs": [
        {
          "internalType": "bool",
          "name": "",
          "type": "bool"
        }
      ],
      "stateMutability": "view",
      "type": "function"
    },
    {
      "inputs": [],
      "name": "name",
      "outputs": [
        {
          "internalType": "string",
          "name": "",
          "type": "string"
        }
      ],
      "stateMutability": "view",
      "type": "function"
    },
    {
      "inputs": [],
      "name": "oracle",
      "outputs": [
        {
          "internalType": "uint256",
          "name": "",
          "type": "uint256"
        }
      ],
      "stateMutability": "view",
      "type": "function"
    },
    {
      "inputs": [],
      "name": "oracle_prev",
      "outputs": [
        {
          "internalType": "uint256",
          "name": "",
          "type": "uint256"
        }
      ],
      "stateMutability": "view",
      "type": "function"
    },
    {
      "inputs": [],
      "name": "symbol",
      "outputs": [
        {
          "internalType": "string",
          "name": "",
          "type": "string"
        }
      ],
      "stateMutability": "view",
      "type": "function"
    },
    {
      "inputs": [],
      "name": "timestamp",
      "outputs": [
        {
          "internalType": "uint256",
          "name": "",
          "type": "uint256"
        }
      ],
      "stateMutability": "view",
      "type": "function"
    },
    {
      "inputs": [],
      "name": "totalSupply",
      "outputs": [
        {
          "internalType": "uint256",
          "name": "",
          "type": "uint256"
        }
      ],
      "stateMutability": "view",
      "type": "function"
    },
    {
      "inputs": [
        {
          "internalType": "address",
          "name": "to",
          "type": "address"
        },
        {
          "internalType": "uint256",
          "name": "value",
          "type": "uint256"
        }
      ],
      "name": "transfer",
      "outputs": [
        {
          "internalType": "bool",
          "name": "",
          "type": "bool"
        }
      ],
      "stateMutability": "nonpayable",
      "type": "function"
    },
    {
      "inputs": [
        {
          "internalType": "address",
          "name": "from",
          "type": "address"
        },
        {
          "internalType": "address",
          "name": "to",
          "type": "address"
        },
        {
          "internalType": "uint256",
          "name": "value",
          "type": "uint256"
        }
      ],
      "name": "transferFrom",
      "outputs": [
        {
          "internalType": "bool",
          "name": "",
          "type": "bool"
        }
      ],
      "stateMutability": "nonpayable",
      "type": "function"
    },
    {
      "inputs": [
        {
          "internalType": "address",
          "name": "_asset",
          "type": "address"
        }
      ],
      "name": "initialize",
      "outputs": [],
      "stateMutability": "nonpayable",
      "type": "function"
    },
    {
      "inputs": [],
      "name": "price",
      "outputs": [
        {
          "internalType": "uint256",
          "name": "",
          "type": "uint256"
        }
      ],
      "stateMutability": "view",
      "type": "function"
    },
    {
      "inputs": [
        {
          "internalType": "uint256",
          "name": "token_amount",
          "type": "uint256"
        },
        {
          "internalType": "uint256",
          "name": "expected_assets",
          "type": "uint256"
        }
      ],
      "name": "deposit",
      "outputs": [],
      "stateMutability": "nonpayable",
      "type": "function"
    },
    {
      "inputs": [
        {
          "internalType": "uint256",
          "name": "token_amount",
          "type": "uint256"
        },
        {
          "internalType": "uint256",
          "name": "expected_assets",
          "type": "uint256"
        }
      ],
      "name": "withdraw",
      "outputs": [],
      "stateMutability": "nonpayable",
      "type": "function"
    },
    {
      "inputs": [
        {
          "internalType": "uint256",
          "name": "token_amount",
          "type": "uint256"
        }
      ],
      "name": "calculateAssetIn",
      "outputs": [
        {
          "internalType": "uint256",
          "name": "",
          "type": "uint256"
        }
      ],
      "stateMutability": "view",
      "type": "function"
    },
    {
      "inputs": [
        {
          "internalType": "uint256",
          "name": "token_amount",
          "type": "uint256"
        }
      ],
      "name": "calculateAssetOut",
      "outputs": [
        {
          "internalType": "uint256",
          "name": "",
          "type": "uint256"
        }
      ],
      "stateMutability": "view",
      "type": "function"
    }
  ],
  "bytecode": "0x60806040526001600a5534801561001557600080fd5b506122b0806100256000396000f3fe608060405234801561001057600080fd5b506004361061012c5760003560e01c806370a08231116100ad578063a9059cbb11610071578063a9059cbb1461053f578063b80777ea146105a5578063c4d66de8146105c3578063dd62ed3e14610607578063e2bbb1581461067f5761012c565b806370a08231146103e65780637dc0d1d01461043e57806395d89b411461045c5780639c3e16cb146104df578063a035b1fe146105215761012c565b806323b872dd116100f457806323b872dd14610278578063313ce567146102fe57806338d52e0f14610322578063441a3e701461036c5780634ab49c1e146103a45761012c565b806306fdde0314610131578063095ea7b3146101b457806313d61c8a1461021a578063158ef93e1461023857806318160ddd1461025a575b600080fd5b6101396106b7565b6040518080602001828103825283818151815260200191508051906020019080838360005b8381101561017957808201518184015260208101905061015e565b50505050905090810190601f1680156101a65780820380516001836020036101000a031916815260200191505b509250505060405180910390f35b610200600480360360408110156101ca57600080fd5b81019080803573ffffffffffffffffffffffffffffffffffffffff16906020019092919080359060200190929190505050610755565b604051808215151515815260200191505060405180910390f35b61022261076c565b6040518082815260200191505060405180910390f35b610240610772565b604051808215151515815260200191505060405180910390f35b610262610785565b6040518082815260200191505060405180910390f35b6102e46004803603606081101561028e57600080fd5b81019080803573ffffffffffffffffffffffffffffffffffffffff169060200190929190803573ffffffffffffffffffffffffffffffffffffffff1690602001909291908035906020019092919050505061078b565b604051808215151515815260200191505060405180910390f35b610306610956565b604051808260ff1660ff16815260200191505060405180910390f35b61032a610969565b604051808273ffffffffffffffffffffffffffffffffffffffff1673ffffffffffffffffffffffffffffffffffffffff16815260200191505060405180910390f35b6103a26004803603604081101561038257600080fd5b81019080803590602001909291908035906020019092919050505061098f565b005b6103d0600480360360208110156103ba57600080fd5b8101908080359060200190929190505050610b70565b6040518082815260200191505060405180910390f35b610428600480360360208110156103fc57600080fd5b81019080803573ffffffffffffffffffffffffffffffffffffffff169060200190929190505050610c9c565b6040518082815260200191505060405180910390f35b610446610cb4565b6040518082815260200191505060405180910390f35b610464610cba565b6040518080602001828103825283818151815260200191508051906020019080838360005b838110156104a4578082015181840152602081019050610489565b50505050905090810190601f1680156104d15780820380516001836020036101000a031916815260200191505b509250505060405180910390f35b61050b600480360360208110156104f557600080fd5b8101908080359060200190929190505050610d58565b6040518082815260200191505060405180910390f35b610529610e84565b6040518082815260200191505060405180910390f35b61058b6004803603604081101561055557600080fd5b81019080803573ffffffffffffffffffffffffffffffffffffffff16906020019092919080359060200190929190505050610e9c565b604051808215151515815260200191505060405180910390f35b6105ad610eb3565b6040518082815260200191505060405180910390f35b610605600480360360208110156105d957600080fd5b81019080803573ffffffffffffffffffffffffffffffffffffffff169060200190929190505050610eb9565b005b6106696004803603604081101561061d57600080fd5b81019080803573ffffffffffffffffffffffffffffffffffffffff169060200190929190803573ffffffffffffffffffffffffffffffffffffffff169060200190929190505050611316565b6040518082815260200191505060405180910390f35b6106b56004803603604081101561069557600080fd5b81019080803590602001909291908035906020019092919050505061133b565b005b60008054600181600116156101000203166002900480601f01602080910402602001604051908101604052809291908181526020018280546001816001161561010002031660029004801561074d5780601f106107225761010080835404028352916020019161074d565b820191906000526020600020905b81548152906001019060200180831161073057829003601f168201915b505050505081565b600061076233848461151d565b6001905092915050565b60095481565b600660009054906101000a900460ff1681565b60035481565b60007fffffffffffffffffffffffffffffffffffffffffffffffffffffffffffffffff600560008673ffffffffffffffffffffffffffffffffffffffff1673ffffffffffffffffffffffffffffffffffffffff16815260200190815260200160002060003373ffffffffffffffffffffffffffffffffffffffff1673ffffffffffffffffffffffffffffffffffffffff1681526020019081526020016000205414610940576108bf82600560008773ffffffffffffffffffffffffffffffffffffffff1673ffffffffffffffffffffffffffffffffffffffff16815260200190815260200160002060003373ffffffffffffffffffffffffffffffffffffffff1673ffffffffffffffffffffffffffffffffffffffff1681526020019081526020016000205461160890919063ffffffff16565b600560008673ffffffffffffffffffffffffffffffffffffffff1673ffffffffffffffffffffffffffffffffffffffff16815260200190815260200160002060003373ffffffffffffffffffffffffffffffffffffffff1673ffffffffffffffffffffffffffffffffffffffff168152602001908152602001600020819055505b61094b84848461168b565b600190509392505050565b600260009054906101000a900460ff1681565b600660019054906101000a900473ffffffffffffffffffffffffffffffffffffffff1681565b6001600a5414610a07576040517f08c379a00000000000000000000000000000000000000000000000000000000081526004018080602001828103825260108152602001807f4865646765686f673a204c4f434b45440000000000000000000000000000000081525060200191505060405180910390fd5b6000600a819055506000610a1a83610b70565b905060008111610a75576040517f08c379a00000000000000000000000000000000000000000000000000000000081526004018080602001828103825260268152602001806121c96026913960400191505060405180910390fd5b81811015610ace576040517f08c379a000000000000000000000000000000000000000000000000000000000815260040180806020018281038252603081526020018061224b6030913960400191505060405180910390fd5b610ad661181f565b610ae033846118a5565b610b0d600660019054906101000a900473ffffffffffffffffffffffffffffffffffffffff1633836119bf565b3373ffffffffffffffffffffffffffffffffffffffff167ff279e6a1f5e320cca91135676d9cb6e44ca8a08c0b88342bcdb1144f6511b5688285604051808381526020018281526020019250505060405180910390a2506001600a819055505050565b600080600660019054906101000a900473ffffffffffffffffffffffffffffffffffffffff1673ffffffffffffffffffffffffffffffffffffffff166370a08231306040518263ffffffff1660e01b8152600401808273ffffffffffffffffffffffffffffffffffffffff1673ffffffffffffffffffffffffffffffffffffffff16815260200191505060206040518083038186803b158015610c1257600080fd5b505afa158015610c26573d6000803e3d6000fd5b505050506040513d6020811015610c3c57600080fd5b810190808051906020019092919050505090506000610c668460035461160890919063ffffffff16565b90506000610c7d8283611b9b90919063ffffffff16565b9050610c92818461160890919063ffffffff16565b9350505050919050565b60046020528060005260406000206000915090505481565b60085481565b60018054600181600116156101000203166002900480601f016020809104026020016040519081016040528092919081815260200182805460018160011615610100020316600290048015610d505780601f10610d2557610100808354040283529160200191610d50565b820191906000526020600020905b815481529060010190602001808311610d3357829003601f168201915b505050505081565b600080600660019054906101000a900473ffffffffffffffffffffffffffffffffffffffff1673ffffffffffffffffffffffffffffffffffffffff166370a08231306040518263ffffffff1660e01b8152600401808273ffffffffffffffffffffffffffffffffffffffff1673ffffffffffffffffffffffffffffffffffffffff16815260200191505060206040518083038186803b158015610dfa57600080fd5b505afa158015610e0e573d6000803e3d6000fd5b505050506040513d6020811015610e2457600080fd5b810190808051906020019092919050505090506000610e4e84600354611c3090919063ffffffff16565b90506000610e658283611b9b90919063ffffffff16565b9050610e7a838261160890919063ffffffff16565b9350505050919050565b600080610e93620186a0610d58565b90508091505090565b6000610ea933848461168b565b6001905092915050565b60075481565b60001515600660009054906101000a900460ff16151514610f25576040517f08c379a000000000000000000000000000000000000000000000000000000000815260040180806020018281038252602881526020018061214c6028913960400191505060405180910390fd5b80600660016101000a81548173ffffffffffffffffffffffffffffffffffffffff021916908373ffffffffffffffffffffffffffffffffffffffff1602179055506001600660006101000a81548160ff0219169083151502179055506060600660019054906101000a900473ffffffffffffffffffffffffffffffffffffffff1673ffffffffffffffffffffffffffffffffffffffff166306fdde036040518163ffffffff1660e01b815260040160006040518083038186803b158015610feb57600080fd5b505afa158015610fff573d6000803e3d6000fd5b505050506040513d6000823e3d601f19601f82011682018060405250602081101561102957600080fd5b810190808051604051939291908464010000000082111561104957600080fd5b8382019150602082018581111561105f57600080fd5b825186600182028301116401000000008211171561107c57600080fd5b8083526020830192505050908051906020019080838360005b838110156110b0578082015181840152602081019050611095565b50505050905090810190601f1680156110dd5780820380516001836020036101000a031916815260200191505b5060405250505090506111256040518060400160405280600981526020017f4865646765686f6720000000000000000000000000000000000000000000000081525082611cb3565b6000908051906020019061113a9291906120a6565b506060600660019054906101000a900473ffffffffffffffffffffffffffffffffffffffff1673ffffffffffffffffffffffffffffffffffffffff166395d89b416040518163ffffffff1660e01b815260040160006040518083038186803b1580156111a557600080fd5b505afa1580156111b9573d6000803e3d6000fd5b505050506040513d6000823e3d601f19601f8201168201806040525060208110156111e357600080fd5b810190808051604051939291908464010000000082111561120357600080fd5b8382019150602082018581111561121957600080fd5b825186600182028301116401000000008211171561123657600080fd5b8083526020830192505050908051906020019080838360005b8381101561126a57808201518184015260208101905061124f565b50505050905090810190601f1680156112975780820380516001836020036101000a031916815260200191505b5060405250505090506112df6040518060400160405280600181526020017f680000000000000000000000000000000000000000000000000000000000000081525082611cb3565b600190805190602001906112f49291906120a6565b506005600260006101000a81548160ff021916908360ff160217905550505050565b6005602052816000526040600020602052806000526040600020600091509150505481565b6001600a54146113b3576040517f08c379a00000000000000000000000000000000000000000000000000000000081526004018080602001828103825260108152602001807f4865646765686f673a204c4f434b45440000000000000000000000000000000081525060200191505060405180910390fd5b6000600a8190555060006113c683610d58565b905060008111611421576040517f08c379a00000000000000000000000000000000000000000000000000000000081526004018080602001828103825260248152602001806121a56024913960400191505060405180910390fd5b8181111561147a576040517f08c379a000000000000000000000000000000000000000000000000000000000815260040180806020018281038252602f8152602001806121ef602f913960400191505060405180910390fd5b61148261181f565b6114b0600660019054906101000a900473ffffffffffffffffffffffffffffffffffffffff16333084611d7b565b6114ba3384611f8c565b3373ffffffffffffffffffffffffffffffffffffffff167f90890809c654f11d6e72a28fa60149770a0d11ec6c92319d6ceb2bb0a4ea1a158285604051808381526020018281526020019250505060405180910390a2506001600a819055505050565b80600560008573ffffffffffffffffffffffffffffffffffffffff1673ffffffffffffffffffffffffffffffffffffffff16815260200190815260200160002060008473ffffffffffffffffffffffffffffffffffffffff1673ffffffffffffffffffffffffffffffffffffffff168152602001908152602001600020819055508173ffffffffffffffffffffffffffffffffffffffff168373ffffffffffffffffffffffffffffffffffffffff167f8c5be1e5ebec7d5bd14f71427d1e84f3dd0314c0f7b2291e5b200ac8c7c3b925836040518082815260200191505060405180910390a3505050565b6000828284039150811115611685576040517f08c379a00000000000000000000000000000000000000000000000000000000081526004018080602001828103825260158152602001807f64732d6d6174682d7375622d756e646572666c6f77000000000000000000000081525060200191505060405180910390fd5b92915050565b6116dd81600460008673ffffffffffffffffffffffffffffffffffffffff1673ffffffffffffffffffffffffffffffffffffffff1681526020019081526020016000205461160890919063ffffffff16565b600460008573ffffffffffffffffffffffffffffffffffffffff1673ffffffffffffffffffffffffffffffffffffffff1681526020019081526020016000208190555061177281600460008573ffffffffffffffffffffffffffffffffffffffff1673ffffffffffffffffffffffffffffffffffffffff16815260200190815260200160002054611c3090919063ffffffff16565b600460008473ffffffffffffffffffffffffffffffffffffffff1673ffffffffffffffffffffffffffffffffffffffff168152602001908152602001600020819055508173ffffffffffffffffffffffffffffffffffffffff168373ffffffffffffffffffffffffffffffffffffffff167fddf252ad1be2c89b69c2b068fc378daa952ba7f163c4a11628f55a4df523b3ef836040518082815260200191505060405180910390a3505050565b4260075410801561183257506000600354115b156118a357600854600981905550611848610e84565b600881905550426007819055507fb7fefb7d1b22b74b6807108ec49955e84e0a0bdcddeb841574fb1b1094cc66c460075460085460095460405180848152602001838152602001828152602001935050505060405180910390a15b565b6118f781600460008573ffffffffffffffffffffffffffffffffffffffff1673ffffffffffffffffffffffffffffffffffffffff1681526020019081526020016000205461160890919063ffffffff16565b600460008473ffffffffffffffffffffffffffffffffffffffff1673ffffffffffffffffffffffffffffffffffffffff1681526020019081526020016000208190555061194f8160035461160890919063ffffffff16565b600381905550600073ffffffffffffffffffffffffffffffffffffffff168273ffffffffffffffffffffffffffffffffffffffff167fddf252ad1be2c89b69c2b068fc378daa952ba7f163c4a11628f55a4df523b3ef836040518082815260200191505060405180910390a35050565b600060608473ffffffffffffffffffffffffffffffffffffffff1663a9059cbb8585604051602401808373ffffffffffffffffffffffffffffffffffffffff1673ffffffffffffffffffffffffffffffffffffffff168152602001828152602001925050506040516020818303038152906040529060e01b6020820180517bffffffffffffffffffffffffffffffffffffffffffffffffffffffff83818316178352505050506040518082805190602001908083835b60208310611a985780518252602082019150602081019050602083039250611a75565b6001836020036101000a0380198251168184511680821785525050505050509050019150506000604051808303816000865af19150503d8060008114611afa576040519150601f19603f3d011682016040523d82523d6000602084013e611aff565b606091505b5091509150818015611b3f5750600081511480611b3e5750808060200190516020811015611b2c57600080fd5b81019080805190602001909291905050505b5b611b94576040517f08c379a000000000000000000000000000000000000000000000000000000000815260040180806020018281038252602d81526020018061221e602d913960400191505060405180910390fd5b5050505050565b600080821480611bb85750828283850292508281611bb557fe5b04145b611c2a576040517f08c379a00000000000000000000000000000000000000000000000000000000081526004018080602001828103825260148152602001807f64732d6d6174682d6d756c2d6f766572666c6f7700000000000000000000000081525060200191505060405180910390fd5b92915050565b6000828284019150811015611cad576040517f08c379a00000000000000000000000000000000000000000000000000000000081526004018080602001828103825260148152602001807f64732d6d6174682d6164642d6f766572666c6f7700000000000000000000000081525060200191505060405180910390fd5b92915050565b606082826040516020018083805190602001908083835b60208310611ced5780518252602082019150602081019050602083039250611cca565b6001836020036101000a03801982511681845116808217855250505050505090500182805190602001908083835b60208310611d3e5780518252602082019150602081019050602083039250611d1b565b6001836020036101000a03801982511681845116808217855250505050505090500192505050604051602081830303815290604052905092915050565b600060608573ffffffffffffffffffffffffffffffffffffffff166323b872dd868686604051602401808473ffffffffffffffffffffffffffffffffffffffff1673ffffffffffffffffffffffffffffffffffffffff1681526020018373ffffffffffffffffffffffffffffffffffffffff1673ffffffffffffffffffffffffffffffffffffffff16815260200182815260200193505050506040516020818303038152906040529060e01b6020820180517bffffffffffffffffffffffffffffffffffffffffffffffffffffffff83818316178352505050506040518082805190602001908083835b60208310611e885780518252602082019150602081019050602083039250611e65565b6001836020036101000a0380198251168184511680821785525050505050509050019150506000604051808303816000865af19150503d8060008114611eea576040519150601f19603f3d011682016040523d82523d6000602084013e611eef565b606091505b5091509150818015611f2f5750600081511480611f2e5750808060200190516020811015611f1c57600080fd5b81019080805190602001909291905050505b5b611f84576040517f08c379a00000000000000000000000000000000000000000000000000000000081526004018080602001828103825260318152602001806121746031913960400191505060405180910390fd5b505050505050565b611fa181600354611c3090919063ffffffff16565b600381905550611ff981600460008573ffffffffffffffffffffffffffffffffffffffff1673ffffffffffffffffffffffffffffffffffffffff16815260200190815260200160002054611c3090919063ffffffff16565b600460008473ffffffffffffffffffffffffffffffffffffffff1673ffffffffffffffffffffffffffffffffffffffff168152602001908152602001600020819055508173ffffffffffffffffffffffffffffffffffffffff16600073ffffffffffffffffffffffffffffffffffffffff167fddf252ad1be2c89b69c2b068fc378daa952ba7f163c4a11628f55a4df523b3ef836040518082815260200191505060405180910390a35050565b828054600181600116156101000203166002900490600052602060002090601f016020900481019282601f106120e757805160ff1916838001178555612115565b82800160010185558215612115579182015b828111156121145782518255916020019190600101906120f9565b5b5090506121229190612126565b5090565b61214891905b8082111561214457600081600090555060010161212c565b5090565b9056fe4865646765686f675f696e697469616c697a653a20616c726561647920696e697469616c697a65645472616e7366657248656c7065723a3a7472616e7366657246726f6d3a207472616e7366657246726f6d206661696c65644865646765686f675f4465706f7369743a207a65726f206173736574206465706f7369744865646765686f675f77697468647261773a207a65726f2061737365742077697468647261774865646765686f675f4465706f7369743a206465706f736974206173736574732061626f76652065787065637465645472616e7366657248656c7065723a3a736166655472616e736665723a207472616e73666572206661696c65644865646765686f675f4465706f7369743a207769746864726177206173736574732062656c6f77206578706563746564a26469706673582212204c921a1d31ea8b25bee99ad7531f6602c7e483a9c0ea9ad99ce25c31f7e24b2b64736f6c634300060b0033",
  "immutableReferences": {},
  "source": "// SPDX-License-Identifier: GPL-3.0\npragma solidity =0.6.11;\n\nimport './libraries/TransferHelper.sol';\nimport './HedgehogERC20.sol';\n\ncontract Hedgehog is HedgehogERC20{\n  using SafeMath for uint256;\n\n  bool public initialized;\n  address public asset;\n\n  uint256 public timestamp;\n  uint256 public oracle;\n  uint256 public oracle_prev;\n\n  event Deposit(address indexed from, uint256 asset_value, uint256 token_value);\n  event Withdraw(address indexed from, uint256 asset_value, uint256 token_value);\n  event Oracle(uint256 timestamp, uint256 new_price, uint256 old_price);\n\n\n  uint256 private unlocked = 1;\n  modifier lock() {\n      require(unlocked == 1, 'Hedgehog: LOCKED');\n      unlocked = 0;\n      _;\n      unlocked = 1;\n  }\n\n  function initialize(address _asset) public {\n      require(initialized == false, \"Hedgehog_initialize: already initialized\");\n      asset = _asset;\n      initialized = true;\n      string memory _name = IERC20(asset).name();\n      name = append(\"Hedgehog \", _name);\n      string memory _symbol = IERC20(asset).symbol();\n      symbol = append(\"h\", _symbol);\n      decimals = 5;\n  }\n\n  function price() public view returns (uint256) {\n      uint256 token_price = calculateAssetIn(1e5);\n      return token_price;\n  }\n  \n  function deposit(uint256 token_amount, uint256 expected_assets) public lock {\n      uint256 asset_deposit = calculateAssetIn(token_amount);\n      require(asset_deposit > 0, \"Hedgehog_Deposit: zero asset deposit\"); \n      require(asset_deposit <= expected_assets, \"Hedgehog_Deposit: deposit assets above expected\");\n      _oracle();\n      TransferHelper.safeTransferFrom(asset, msg.sender, address(this), asset_deposit); \n      _mint(msg.sender, token_amount);\n      Deposit(msg.sender, asset_deposit, token_amount);\n  }\n\n  function withdraw(uint256 token_amount, uint256 expected_assets) public lock {\n      uint256 asset_withdraw = calculateAssetOut(token_amount);\n      require(asset_withdraw > 0, \"Hedgehog_withdraw: zero asset withdraw\"); \n      require(asset_withdraw >= expected_assets, \"Hedgehog_Deposit: withdraw assets below expected\");\n      _oracle();\n      _burn(msg.sender, token_amount);\n      TransferHelper.safeTransfer(asset, msg.sender, asset_withdraw);\n      Withdraw(msg.sender, asset_withdraw, token_amount);\n  }\n\n  function calculateAssetIn(uint256 token_amount) public view returns (uint256) {\n      uint256 asset_balance = IERC20(asset).balanceOf(address(this));\n      uint256 token_balance_new = totalSupply.add(token_amount);\n      uint256 asset_balance_new = token_balance_new.mul(token_balance_new);\n      return asset_balance_new.sub(asset_balance);\n  }\n\n  function calculateAssetOut(uint256 token_amount) public view returns (uint256) {\n      uint256 asset_balance = IERC20(asset).balanceOf(address(this));\n      uint256 token_balance_new = totalSupply.sub(token_amount);\n      uint256 asset_balance_new = token_balance_new.mul(token_balance_new);\n      return asset_balance.sub(asset_balance_new);\n  }\n\n  function _oracle() internal {\n      if (timestamp < block.timestamp && totalSupply > 0){\n\t      oracle_prev = oracle;\n          oracle = price();\n          timestamp = block.timestamp;\n          Oracle(timestamp, oracle, oracle_prev);\n      }\n  }\n\n  function append(string memory a, string memory b) internal pure returns (string memory) {\n      return string(abi.encodePacked(a, b));\n  }\n}\n",
  "sourcePath": "/Users/Hedgehog_back/contracts/Hedgehog.sol",
  "compiler": {
    "name": "solc",
    "version": "0.6.11+commit.5ef660b1.Emscripten.clang"
  },
  "schemaVersion": "3.1.0",
  "updatedAt": "2021-01-29T13:33:54.559Z",
  "devdoc": {
    "kind": "dev",
    "methods": {},
    "version": 1
  },
  "userdoc": {
    "kind": "user",
    "methods": {},
    "version": 1
  }
}